{
  "contractName": "CarController",
  "abi": [
    {
      "anonymous": false,
      "inputs": [
        {
          "indexed": false,
          "name": "_command",
          "type": "string"
        }
      ],
      "name": "CarCommandSent",
      "type": "event",
      "signature": "0x787974f576d067af0a10f4ded8c490181c968b0778f075dfa5ab9e2501a4836f"
    },
    {
      "constant": false,
      "inputs": [
        {
          "name": "_command",
          "type": "string"
        }
      ],
      "name": "sendCommand",
      "outputs": [
        {
          "name": "commandSent",
          "type": "bool"
        }
      ],
      "payable": false,
      "stateMutability": "nonpayable",
      "type": "function",
      "signature": "0x8aed8040"
    }
  ],
  "bytecode": "0x608060405234801561001057600080fd5b506101d5806100206000396000f3fe608060405234801561001057600080fd5b5060043610610047577c010000000000000000000000000000000000000000000000000000000060003504638aed8040811461004c575b600080fd5b6100f26004803603602081101561006257600080fd5b81019060208101813564010000000081111561007d57600080fd5b82018360208201111561008f57600080fd5b803590602001918460018302840111640100000000831117156100b157600080fd5b91908080601f016020809104026020016040519081016040528093929190818152602001838380828437600092019190915250929550610106945050505050565b604080519115158252519081900360200190f35b60007f787974f576d067af0a10f4ded8c490181c968b0778f075dfa5ab9e2501a4836f826040518080602001828103825283818151815260200191508051906020019080838360005b8381101561016757818101518382015260200161014f565b50505050905090810190601f1680156101945780820380516001836020036101000a031916815260200191505b509250505060405180910390a150600191905056fea165627a7a723058201cc1fac651babd9939850f716a2cffff1549d3a1996fa84aa4aa837cac8462950029",
  "source": "pragma solidity 0.5.3;\n\n/**\n * @title Car Controller\n * @author Pines & Electronics\n *\n * @dev Simple contract emitting an event.\n */\ncontract CarController {\n\n\n    /**\n     * @dev CarCommandSent event register in the log the commands that you send to the car.\n     */\n    event CarCommandSent(\n        string _command\n    );\n\n    /**\n     * @notice Send command\n     *\n     * @dev send the event with the car command.\n     *\n     * @param _command refers to the attribute value, limited to 2048 bytes.\n     * @return true when the command was emitted properly.\n     */\n    function sendCommand (\n        string memory _command\n    )\n        public\n        returns (bool commandSent)\n    {\n\n        emit CarCommandSent(\n            _command\n        );\n\n        return true;\n    }\n\n}\n",
  "sourcePath": "/home/eruiz/Odyssey/pines-and-electronics/dao/contracts/CarController.sol",
  "compiler": {
    "name": "solc",
    "version": "0.5.3+commit.10d17f24.Emscripten.clang"
  },
  "schemaVersion": "3.0.2",
  "updatedAt": "2019-04-12T19:59:39.514Z",
  "devdoc": {
    "author": "Pines & Electronics",
    "details": "Simple contract emitting an event.",
    "methods": {
      "sendCommand(string)": {
        "details": "send the event with the car command.",
        "params": {
          "_command": "refers to the attribute value, limited to 2048 bytes."
        },
        "return": "true when the command was emitted properly."
      }
    },
    "title": "Car Controller"
  },
  "userdoc": {
    "methods": {
      "sendCommand(string)": {
        "notice": "Send command"
      }
    }
  }
}